:020000020000FC
:0600000012C0B1C0B9C03E
:020008005EC0D8
:040010003DC09EC091
:10002400B2C00FE50DBF02E00EBF0AD01DD0FF27FE
:10003400EE2711E015BB00810BBB00000000FDCFD3
:100044000FEF0ABB08BB04BB02BB01E003BF02E025
:100054000EBD01E009BF05E005BD0AE005BF00EEE5
:100064000BBF789460E1089500E0402E00E0302E4C
:1000740000E4202E00E0102E00E0002E202D312D73
:10008400432D542D3ED0089523952A3029F4222758
:1000940033953A3009F43327022E132EFF93EF934E
:1000A400F1E0ECE9E00D0491002EEF91FF91FF9354
:1000B400EF93F1E0ECE9E10D0491102EEF91FF9143
:1000C40018956A95E9F460E143954A3029F4442788
:1000D40053955A3009F45527342E452EFF93EF9348
:1000E400F1E0ECE9E30D0491302EEF91FF91FF93E1
:1000F400EF93F1E0ECE9E40D0491402EEF91FF91D0
:100104001895FF93EF93F1E0ECE9E00D0491002ED4
:10011400EF91FF91FF93EF93F1E0ECE9E10D04918E
:10012400102EEF91FF91FF93EF93F1E0ECE9E30DD3
:100134000491302EEF91FF91FF93EF93F1E0ECE9FE
:10014400E40D0491402EEF91FF910895FBBBE395DC
:10015400110F103211F411E0EE2715BB00810BBB17
:1001640018950F931F9309B714E0012709BF1F9136
:100174000F9118950F931F9309B710E4012709BF36
:100184001F910F9118950F931F9309B714E401273A
:1001940009BF1F910F9118953F065B4F666D7D2730
:0201A4007F6F6B
:00000001FF
