S0110000436F6469676F4330312E737265631A
S113000014C040C01AC019C018C017C016C015C00B
S113001014C013C012C011C010C00FC00EC00DC058
S11300200CC00BC00AC009C008C011241FBECFE514
S1130030D2E0DEBFCDBF54D056C0E2CF8FE084BB48
S11300408BEF81BB84E082BB82E085BF80E48BBF01
S11300507894089589E190E0E3ECF9E03197F1F7C1
S113006000C000000197C1F7089588E085BBF2DF66
S113007084E085BBEFDF82E085BBECDF81E085BBFC
S1130080E9DF08951F920F920FB60F9211242F9358
S11300903F934F935F936F937F938F939F93AF930C
S11300A0BF93EF93FF9381E085BBD4DF82E085BBF0
S11300B0D1DF84E085BBCEDF88E085BBCBDFFF9159
S11300C0EF91BF91AF919F918F917F916F915F91CC
S11300D04F913F912F910F900FBE0F901F90189545
S10D00E0ADDFC3DFFECFF894FFCFBD
S9030000FC
