:020000020000FC
:0600000012C041C042C025
:020012002FC0FD
:1000240034C00FE50DBF02E00EBF0FEF0ABB04BBE7
:1000340002BB0EE005BF00E404BF00EE0BBF05E009
:1000440003BF01E009BF78944FE356E06BE57FE41A
:1000540086E69DE6ADE7B7E2CFE7DFE621E0FF27DE
:10006400112715D01BD021D00BBB15BBFACF120F13
:100074001A3019F01F3F19F018951127189519E037
:10008400189521E018952FEF189520E01895213048
:1000940009F00895E4E1E10F008108952F3F09F08C
:1000A4000895EDE1E11B0081089520300081089559
:00000001FF
