:020000020000FC
:0600000012C040C041C027
:020012002EC0FE
:1000240033C00FE50DBF02E00EBF0FEF0ABB02BBEA
:1000340008BB0EE005BF00E404BF00EE0BBF05E003
:1000440003BF01E009BF78944FE356E06BE57FE41A
:1000540086E69DE6ADE7B7E2CFE7DFE621E0FF27DE
:10006400112714D016D018D00BBBFBCF120F1A30A7
:1000740019F01F3F19F018951127189519E01895D4
:1000840021E018952FEF189520E01895213039F0CC
:1000940008952F3F21F00895203000810895E4E170
:0600A400E10F0081089548
:00000001FF
