:1000000014C01BC01AC019C018C017C016C015C034
:1000100014C013C012C011C010C00FC00EC00DC05C
:100020000CC00BC00AC009C008C011241FBECFE518
:10003000D2E0DEBFCDBF1BD024C0E2CF8FE084BBB7
:100040008BEF81BB84E082BB089588E085BB84E0B0
:1000500085BB82E085BB81E085BB089581E085BBDF
:1000600082E085BB84E085BB88E085BB0895E6DF40
:1000700080B3882321F08430D9F7E7DFF9CFEEDFB2
:06008000F7CFF894FFCF5A
:00000001FF
